:020000022000DC
:10600000000001203DCD020065CD020067CD0200F9
:1060100069CD02006BCD02006DCD020000000000D2
:10602000000000000000000000000000258D0400BA
:1060300071CD020000000000458D040075CD020006
:10604000BD6E0400D1620200D362020045D9020095
:1060500077CD0200D562020077CD020077CD020035
:10606000D7620200D9620200DB620200DD62020038
:10607000DF620200E1620200E3620200E562020008
:106080003DD30200ED8A0400E7620200E9620200EB
:10609000EB620200ED620200EF620200F1620200B8
:1060A000F3620200F5620200F7620200F962020088
:1060B000FB620200FD620200000000000000000020
:1060C000FF62020001630200036302000563020035
:1060D00007630200096302000B6302000000000076
:1060E00000000000000000000000000000000000B0
:1060F00000000000000000000000000000000000A0
:10610000000000000000000000000000000000008F
:10611000000000000000000000000000000000007F
:10612000000000000000000000000000000000006F
:10613000000000000000000000000000000000005F
:10614000000000000000000000000000000000004F
:10615000000000000000000000000000000000003F
:10616000000000000000000000000000000000002F
:10617000000000000000000000000000000000001F
:10618000000000000000000000000000000000000F
:1061900000000000000000000000000000000000FF
:1061A00000000000000000000000000000000000EF
:1061B00000000000000000000000000000000000DF
:1061C00000000000000000000000000000000000CF
:1061D00000000000000000000000000000000000BF
:1061E00000000000000000000000000000000000AF
:1061F000000000000000000000000000000000009F
:1062000010B5054C237833B9044B13B10448AFF3F0
:1062100000800123237010BDB8280020000000007A
:1062200040E1040008B5034B1BB103490348AFF339
:10623000008008BD00000000BC28002040E10400F0
:10624000A3F5803A704700BF154B002B08BF114BD8
:106250009D46FFF7F5FF00218B460F461148124A75
:10626000121A00F0EDFA0C4B002B00D098470B4BA4
:10627000002B00D098470020002104000D000B489F
:1062800000F08EFA00F0B8FA2000290000F044F87F
:1062900000F08CFA00000800000000000000000080
:1062A00000000120B8280020A0740020CD67020063
:1062B00008B5044807F058F8052007F051F807F032
:1062C000D5FCF9E76C9A040008B500F051FA08BD56
:1062D0007047704770477047704770477047704706
:1062E00070477047704770477047704770477047F6
:1062F00070477047704770477047704770477047E6
:1063000070477047704770477047704708B5012065
:1063100015F0C8FD08BD000010B582B007F0D6FB2F
:1063200007F01AF806F0E8FF07F030FF00240094A9
:10633000084B094A0121094807F017F80094084B57
:10634000084A0221084807F010F807F01DF8204617
:1063500002B010BDC9620200549A0400D428002083
:10636000B1620200609A0400D8280020102900D0F1
:10637000704708B514F004FF00F0ACF908BD000048
:1063800000487047789A040030B583B015F0FCFDE2
:106390000AF0A6FA002108F035F8054615F0F4FDDC
:1063A0000AF086FA002114F0EBFD0B4C2060142358
:1063B000009300230D22294608F01FFA07492068A0
:1063C00014F060FC1021206814F085FE0449206858
:1063D00007F05DFF03B030BDDC280020B81D0020B1
:1063E0006D630200704708B515F0CEFD0AF060FA43
:1063F00009F0A8FD08BD000000487047849A040019
:10640000114BA3FB00235B09642202FB1303DBB2E5
:106410000B3B022B12D90D4BA3FB0023DB0803EB34
:106420008303A0EB4300C0B2022809D0032809D09F
:10643000012801D006487047064870470448704755
:1064400005487047054870471F85EB51CDCCCCCC33
:10645000949A04009C9B04009C9A0400989A04005F
:106460002DE9F04FADF5097D264C0121206813F090
:10647000F9F80121206812F0E6FD06F089FF0646D2
:1064800006F089FF814606F088FF054606F087FF83
:10649000824606F086FF044606F085FF074606F0B2
:1064A00084FF80460B2C29D9DFF868B00C2C01D969
:1064B0000C3CE4B2144B53F82AA0144B53F8299027
:1064C0002846FFF79DFFCDF81CB0CDF81880059742
:1064D00004940396CDF808900190009553460C4A19
:1064E0004FF4007108A800F0FBF908A9054B1868E3
:1064F00013F034F80DF5097DBDE8F08FDFF818B022
:10650000D4E700BFE4280020449C0400109C040051
:10651000A89A0400A49A0400A09A040070B582B05E
:1065200015F032FD0AF0DCF9002107F06BFF06469A
:1065300015F02AFD0AF0BCF9002113F0A5F80D4D65
:1065400028600D4913F00AF80121286807F084FE3D
:106550000024009423460D223146286808F04DF9A6
:1065600023460322C821054807F006FD044B1860A6
:1065700002B070BDE4280020849A04006164020027
:10658000E02800207047000008B5054B186807F0A8
:1065900015FB15F0F9FC0AF08BF909F0D3FC08BDE6
:1065A000E0280020004870478C9A0400704770472C
:1065B00008B515F0E9FC0AF07BF909F0C3FC08BD49
:1065C0004FF0A043D3F8103513F4005F03D1024B12
:1065D000024AC3F800267047000001403546526E5B
:1065E000F0B583B015F0D0FC0AF07AF9002113F071
:1065F0008FFD324E3060012107F02EFE346815F019
:10660000C3FC0AF06DF901461423009300230A220B
:10661000204608F080FA0124009423460322114604
:10662000306813F00BFE0621306813F0F3FD244DA3
:1066300028460AF06DF90022214628460AF073FA2E
:106640000422102128460AF06EFA0422112128465D
:106650000AF069FA1822122128460AF064FA182270
:10666000132128460AF05FFA0021306815F0F8FA85
:1066700007462A46002109F027FB009423462246BC
:106680002146384613F0DAFD0E49384607F0FFFD83
:106690000021384612F0F8FF0B4912F05FFF00218D
:1066A000384615F041FB0021306812F0EDFF074B32
:1066B0001860074912F052FF03B0F0BD0429002012
:1066C000EC28002059670200649C0400E8280020A0
:1066D000689C040070B506461B4B1B782BB91A4CFE
:1066E0001A4D0FCD0FC42B682360174B1B699847B9
:1066F000002400E00134022C1AD804EB8403144A6D
:1067000002EB83039B689847314600F03DF900286F
:10671000F0D104EB840C0E4B03EB8C0C0A4D0CF106
:10672000040CBCE80F000FC5DCF800302B60E1E77B
:10673000084B1D68044C636898470146284612F0D0
:106740000DFFA368984770BDF0280020809C0400CE
:106750007C9C0400E8280020062902D0102900D0E3
:10676000704708B50148FFF7B5FF08BD789A0400E7
:1067700008B506F01DFEFFF733FF0748FFF7AAFF35
:10678000064BDB68984707F071FA052006F0E8FD34
:10679000FFF716FFF4E700BF849A0400F0280020FA
:1067A000002301461A46184601F0D0BF08B5002163
:1067B000044602F019F8044B1868C36B03B19847FC
:1067C000204623F039F900BFBC9C040038B5084BC3
:1067D000084D5B1B9C1007D0043B1D44013C55F841
:1067E00004399847002CF9D1BDE8384023F02CB982
:1067F000482800204428002070B50D4E0D4D761B12
:10680000B61006D0002455F8043B01349847A64240
:10681000F9D1094E094D761B23F010F9B61006D0B8
:10682000002455F8043B01349847A642F9D170BDC5
:106830003C2800203C280020442800203C28002040
:10684000F0B4860746D0541E002A3CD0CAB2034694
:1068500001E0013C37D303F8012B9D07F9D1032C4C
:106860002AD9CDB245EA05250F2C45EA054534D98C
:10687000A4F1100222F00F0C03F12007160967445F
:1068800003F1100242E9045542E902551032BA42BE
:10689000F8D1721C14F00C0F03EB021204F00F0677
:1068A00013D0331F23F003030433134442F8045B73
:1068B0009342FBD106F003042CB1CAB21C4403F886
:1068C000012B9C42FBD1F0BC704734461346002C90
:1068D000F3D1F8E714460346C1E71A462646E0E737
:1068E0000CB430B51F4B00291C689DB035DB4FF44C
:1068F0000273ADF814300290069021AB18D0013924
:10690000209A049107914FF6FF7502A92046019342
:10691000ADF8165000F0A4F9421C01DA8B23236075
:10692000029B00221A701DB0BDE8304002B07047D3
:1069300004910791209A01934FF6FF7502A9204612
:10694000ADF8165000F08CF9431C01DA8B2323605C
:106950001DB0BDE8304002B070478B2323604FF07C
:10696000FF30F5E7D01D002000000000000000000F
:106970000000000000000000000000000000000017
:10698000A2EB0300704700BF02780B78012A28BFF2
:106990009A42F5D16DE9044540EA0104CDE9026768
:1069A0006FF0000C4FEA447212B380EA010414F055
:1069B000070F6AD100F0070420F0070004F0030578
:1069C00021F007014FEAC505F0E8042314F0040F95
:1069D000F1E804670CFA05F462EA040266EA0406C8
:1069E0000AD063EA0403624667EA0407664603E0E6
:1069F000F0E80423F1E8046782FA4CF582EA060421
:106A0000A4FA8CF46CBB83FA4CF583EA0705A5FA6B
:106A10008CF595B950E9022351E9026782FA4CF5E9
:106A200082EA0604A4FA8CF483FA4CF583EA07059B
:106A3000A5FA8CF52543DBD09CB92DBAB5FA85F4BF
:106A400024F0070427FA04F1DDE9026723FA04F3CE
:106A500003F0FF0001F0FF01FDE80445A0EB010099
:106A6000704724BAB4FA84F424F0070426FA04F137
:106A7000DDE9026722FA04F202F0FF0001F0FF01F3
:106A8000FDE80445A0EB0100704714F0030F3CD172
:106A900010F0030428D150F8082B51F8083B82FA73
:106AA0004CF582EA0305A5FA8CF55DB950F8042C83
:106AB00051F8043C82FA4CF582EA0305A5FA8CF5FC
:106AC000002DE8D02DBAB5FA85F424F0070423FA96
:106AD00004F122FA04F202F0FF0001F0FF01FDE8E8
:106AE0000445A0EB010070474FEAC40420F0030006
:106AF00050F8082B21F0030151F8083B0CFA04F47C
:106B000062EA040263EA0403C9E710F003041AD03E
:106B1000A1EB040120F00300E40750F8042B06D099
:106B20000FD28B785FFAA2F4E41A06D12BB1CB789E
:106B30005FFAB2F4E41A00D11BB920465DF8104B9D
:106B4000704701F1040150F8042BCC0721F0030138
:106B500051F8043B48D824D222F07F4482FA4CF505
:106B600094EA1325A5FA8CF50AD165B951F8043BCE
:106B700084EA0204B4EB036F0ED150F8042BEBE768
:106B80004FEA132355E035F07F454DD10878FDE8F5
:106B90000445C0F1000070474FEA126203F0FF03A2
:106BA00047E002EA1C4482FA4CF594EA1345A5FA40
:106BB0008CF50AD165B951F8043B84EA0204B4EBC0
:106BC000034F0CD150F8042BEBE74FEA134330E0AE
:106BD00015EA1C4528D10B884FEA124229E04FEAFA
:106BE000124203EA1C4324E002F0FF0482FA4CF54F
:106BF00094EA1365A5FA8CF50AD165B951F8043BFE
:106C000084EA0204B4EB032F09D150F8042BEBE71C
:106C10004FEA13630DE015F0FF0F05D10B684FEA43
:106C2000122223F07F4304E04FF00000FDE804450A
:106C3000704712BA1BBA82FA4CF482EA0304A4FA2F
:106C40008CF5B5FA85F402FA04F203FA04F34FEA7C
:106C50001260FDE80445A0EB1360704700000000DF
:106C60002DE9F04F2DED068BCFB08B4617460993DB
:106C7000814602F089FF03681293184603F040FF33
:106C8000BBF80C3011901E0604D5DBF81030002B39
:106C900000F0C48700239FED667BCDE92333CDE967
:106CA0001333CDE916330D931593059325AB22933A
:106CB00098463B788DED0E7B09EE10BA002B00F064
:106CC0003E813C4604E014F8013F002B00F08E802A
:106CD000252BF8D1E51B40F08C802378002B00F0A9
:106CE0002E81002306938DF86B300293661C4FF0C3
:106CF000FF33647804932B254FF0200A0136A4F16A
:106D000020035A2B00F29880DFE813F0030396006B
:106D10009600FD029600960096000C0396009600E1
:106D2000D302290296001A02E3029600DD025B00FC
:106D30005B005B005B005B005B005B005B005B007B
:106D400096009600960096009600960096002E01FA
:106D50009600B50133022E012E012E0196009600F9
:106D6000960096002D0296009600AE0296009600C0
:106D70009600CA019600C30296009600640796002A
:106D800096009600960096009600960096002E01BA
:106D90009600B501F1012E012E012E012002F10114
:106DA0006A009600680296005002610771026A004C
:106DB0009600CA016E003B07960096003F079600BA
:106DC0006E00A4F13003002216F8014B02EB8202A0
:106DD00003EB4202A4F13003092BF5D906928EE7AA
:106DE000029B43F020030293347887E7E51B00F011
:106DF000A680DDE9233201332A44072BCDE9233273
:106E0000C8F80070C8F8045006DC08F10808059AB4
:106E100023782A44059261E719EE101A22AA4846FF
:106E200003F010FF002841F0BB830DF19408EEE75A
:106E300000000000000000000A96002C7FD0002314
:106E400001211A4603918DF8D4408DF86B300893D8
:106E500004930B9310930C93079135AF029B13F09F
:106E6000020302D00399023103910299249D11F08B
:106E7000840B05D1069903980E1A002E00F3C080EA
:106E800072B1239A013201350DF16B000121072AFD
:106E9000CDE92325C8E9000100F3FD8308F10808C6
:106EA0006BB1239B013302351BA90222072BCDE9CD
:106EB0002335C8E9001200F3FD8308F10808BBF18F
:106EC000800F00F0F582049B079A9E1A002E00F3B3
:106ED0003483029BDB0500F18F82239B079AC8F85D
:106EE000007001331544072B2495C8F80420239320
:106EF00000F3B38308F10808029B590705D5069BE8
:106F0000039A9C1A002C00F3E383DDE90532039910
:106F10008A42ACBF9B185B180593002D40F0478355
:106F200000232393089B1BB10899484602F022FDD9
:106F30000DF194080A9F3B78002B7FF4C2AE249B8E
:106F400019EE10BA002B41F0F681BBF80C3013F0AB
:106F5000400F059B18BF4FF0FF33059305984FB0C6
:106F6000BDEC068BBDE8F08F099B0A96073323F032
:106F70000703B3EC027B56EC175B099326F0004342
:106F80000AEE903AB0EE47AA5BEC1AABB14B504612
:106F900059464FF0FF328DED0E7B22F059FB002851
:106FA00040F02685AB4B4FF0FF325046594622F059
:106FB00031FB002840F01C85002200232846314682
:106FC00022F01EFB002841F06F809DF86B20A24F3D
:106FD000A24B029D0021032025F08005039008911B
:106FE0000295472CC8BF1F46079004910B91109142
:106FF0000C91002A3FF432AF039B013303932DE73A
:10700000102E239A28DD29464FF0100A25461C46EB
:10701000434619EE108A04E0103E102E03F10803D7
:1070200016DD01328E481031072ACDE92321C3E94C
:10703000000AF1DD22AA4146484603F003FE00287B
:1070400040F0F686103E102EDDE9232125ABE8DC6A
:10705000984623462C460D46013281493544072A7D
:10706000CDE92325C8E9001600F356879DF86B206B
:1070700008F1080804E7099B0A96002153F8042B3D
:107080008DF8D42001200A46039009938DF86B10E7
:10709000089104910B9110910C91079035AFDDE6AA
:1070A000099D0A9655F8047B00268DF86B60002F29
:1070B00000F0C485049A1346013300F080873146FE
:1070C000384603F045F80890002801F01781089B26
:1070D0000496DA1B0792334622EAE272039209957C
:1070E0009DF86B2008930B9310930C9381E7029B00
:1070F0000A9613F0200F099B45D0073323F00703AE
:107100001946F1E80223099192469B46002A73F141
:107110000003C0F21684049B013300F0AA82029B94
:1071200023F080055AEA0B0340F0A482049B002B55
:1071300040F0A78202950023049307934EAF2EE1FF
:107140003478029B43F004030293D7E53478029B22
:10715000682C00F05C8543F040030293CEE5347860
:107160008DF86B50CAE5029B347843F00803029314
:10717000C4E5029B0A9643F010030293029B13F0AE
:10718000200F099BB9D1029AD50603F1040100F141
:107190001384029B580640F10984099B0991B3F9B5
:1071A00000A04FEAEA7B52465B46AFE7099A0A968F
:1071B00052F8043B0992029A970600F11284029A4F
:1071C000D60600F1F886029A550600F1A887029AC1
:1071D000940540F1F086059A1A70ABE63478029B6C
:1071E0006C2C00F00D8543F01003029386E5099B9B
:1071F0000A9647F6300153F8042BADF86C1002994B
:107200000993184B139341F0020592464FF0000B7F
:107210000223782400228DF86B20049A1146013154
:1072200000F0A28025F0800102915AEA0B0140F0A3
:107230009A80002A40F0B986002B7FF47CAF15F0CD
:107240000103079300F0A68330238DF837310DF248
:107250003717A4E0FFFFEF7FC09C0400C49C04002C
:10726000009D0400D09C0400029B0A9643F010038A
:107270000293029B980640F15483099B073323F045
:107280000703F3E802AB0993029B23F48065002314
:10729000C0E7029B0A9643F01005AF06099B40F138
:1072A0003283073323F00703F3E802AB099301238A
:1072B000B0E7099B347853F8042B0692002AC0F2F9
:1072C0008D8409931AE5029B347843F0800302937E
:1072D00014E5324612F8014B2A2C01F01282A4F177
:1072E0003003092B164698BF002201F22E8016F8B3
:1072F000014B02EB820203EB4202A4F13003092BA3
:10730000F5D90492FBE4029B347843F00103029325
:10731000F4E49DF86B303478002B7FF4EFAC8DF8FB
:107320006BA0EBE4484602F02FFC43681693184626
:1073300003F0E6FB034648461C46179302F024FC84
:1073400082681592002C3FF44FAD159B3478002BCA
:107350003FF4D4AC1B78002B3FF4D0AC029B43F439
:1073600080630293CAE4029D012B00F08381022B0B
:107370004EAF22D113984FEA1A130AF00F0143EAD5
:107380000B734FEA1B129A469346435C07F8013D84
:107390005AEA0B03EFD14EABDB1B02950793002398
:1073A000049908930B9310930C93079B9DF86B2003
:1073B0008B42B8BF0B4603931BE64FEADA0242EA60
:1073C0004B724FEADB010AF007038B4692463033DB
:1073D0005AEA0B013A4607F8013DEED1E907DAD542
:1073E000302BD8D03023023A07F8013C4EAB9B1A21
:1073F000029507931746D2E7652C40F3E480DDE958
:107400000E010022002322F0F1F8002800F0A081F4
:10741000239BCC4AC8F80020013301350122072BF9
:10742000CDE92335C8F8042000F3888508F1080861
:107430001C9B0D9A934280F2A882239B129AC8F853
:107440000020119AC8F8042001331544072B249515
:10745000239300F3C88308F108080D9B5C1E002CE1
:107460007FF74AAD102C239BDFF8E0A240F377852D
:107470005746102619EE10AA05E008F10808103C3E
:10748000102C40F36B8501331035072BCDE92335E4
:10749000C8E90076F1DD22AA5146484603F0D2FB46
:1074A000002840F0D886DDE923350DF19408E6E7A1
:1074B000069B039A9E1A002E7FF705AD102E239B84
:1074C000DFF888A228DD51462A46A24619EE105A56
:1074D0004FF0100B0C4604E0103E102E08F1080887
:1074E00016DD01331032072BCDE92332C8E9004BFA
:1074F000F2DD22AA2946484603F0A4FB002840F00A
:10750000AD81103E102EDDE923320DF19408E8DC48
:10751000154622465446924601333544072BCDE9A1
:107520002335C8E900A600F33285049B079A9E1A0A
:10753000002E08F108087FF7CCAC102E239BDFF853
:107540000CA228DD51462A46A24619EE105A4FF0E9
:10755000100B0C4604E0103E102E08F1080816DD52
:1075600001331032072BCDE92332C8E9004BF2DD9D
:1075700022AA2946484603F065FB002840F06E81A8
:10758000103E102EDDE923320DF19408E8DC15469B
:1075900022465446924601333544072BCDE9233524
:1075A000C8E900A600F3A18108F1080891E419EEEA
:1075B000101A22AA484603F045FB00283FF4B0AC5D
:1075C00019EE10BA4BE10D9A239B012A05F1010532
:1075D00003F1010408F1080640F34B810123072C55
:1075E000CDE92345C8F80070C8F8043000F3B38132
:1075F000119B129A01341D44072CCDE92345C6E99D
:10760000002300F3B5810836DDE90E0100220023D6
:1076100021F0ECFF0D99621C134601F1FF3B06F1CE
:107620000808002840F0378101375D44072A376099
:107630002495C6F804B0239200F3EA8306F1100201
:10764000A31C46469046149971600D441EAA072B50
:107650002495239332607FF74FAC19EE101A22AABB
:10766000484603F0EFFA0028AAD1249D0DF19408B2
:1076700042E4029DBBF1000F08BFBAF10A0F80F08F
:10768000D9830AF1300A01238DF837A102950793B7
:107690000DF2371783E619EE101A22AA48461893FE
:1076A00003F0D0FA00288BD1249D189B0DF194088B
:1076B000FFF7F6BB19EE101A22AA484603F0C2FAE9
:1076C00000287FF47DAF249D0DF19408FFF7F7BBF0
:1076D000102C239B20DD19EE107A102604E0103CBC
:1076E000102C08F1080817DD0133174A1035072B55
:1076F000CDE92335C8E90026F1DD22AA39464846FE
:1077000003F0A0FA002840F02784103C102CDDE99B
:1077100023350DF19408E7DC01330B4A2544072B90
:10772000CDE92335C8E900247FF7EFAB19EE101A35
:1077300022AA484603F086FA00287FF441AF249D30
:10774000FFF7E3BB44A00400009D0400109D04006B
:107750001C9A002A40F3AB83DDE90C329342A8BFA8
:107760001346002B1C460DDD239BC8F80070013327
:107770002544072B2495C8F80440239300F3408543
:1077800008F108080C9B002CA8BF1B1B002B1C46F3
:1077900000F364820C9B3B449A46029B5E0500F119
:1077A00085821C9B0D9A934203DB029AD40740F119
:1077B0008E84239A1299C8F800101199C8F8041001
:1077C00001320D44072A2495239200F3358508F1F0
:1077D00008080D9ABC18A4EB0A04D31A9C42A8BF4F
:1077E0001C46002C0DDD239AC8F800A00132254468
:1077F000072A2495C8F80440239200F38B8508F1EA
:107800000808002CACBF1C1B1C46002C7FF774AB77
:10781000102C239BDFF8C4A540F3A1835746102604
:1078200019EE10AA05E008F10808103C102C40F3EE
:10783000958301331035072BCDE92335C8E9007650
:10784000F1DD22AA5146484603F0FCF9002840F039
:107850000285DDE923350DF19408E6E7AB46089B88
:10786000002B3FF472AB0899484602F083F8FFF70B
:107870006CBB029AD0073FF5B1AE0122072CCDE9CF
:107880002345C8F80070C8F8042000F3C182023311
:1078900008F11008D7E6BBF1000F7FF7D4AEBBF1BB
:1078A000100FDFF838A540F32A8719EE108A102749
:1078B000144607E00836ABF1100BBBF1100F40F394
:1078C000C18301341035072CCDE92345C6E900A753
:1078D000F0DD22AA4146484603F0B4F9002840F002
:1078E000A782DDE9234525AEE5E719EE101A22AAA5
:1078F000484603F0A7F900287FF462AE249D0DF1FD
:107900009408FFF7E6BAEE0603F1040247D46806CE
:10791000099B41D5B3F800A009924FF0000B012359
:1079200078E40299099AC90602F1040353D4029A31
:1079300052064AD5099A0993B2F800A04FF0000BFD
:10794000A2E42D23DAF1000A8DF86B30029D6BEB77
:107950004B0B012361E419EE101A22AA484603F0EA
:1079600071F900287FF42CAEDDE9234525AE3FE612
:1079700019EE101A22AA484603F064F900287FF491
:107980001FAEDDE9234525AE3EE6029BDF077FF50E
:10799000B3AA52E54EAF02E5A90500F1A28319682A
:1079A000099201238A464FF0000B33E4029B13F443
:1079B000007F099B40F0A3831B6809914FEAE37B9A
:1079C0009A461A465B46FFF7A1BB029A12F4007F63
:1079D000099A40F09D831268099392464FF0000B7C
:1079E00052E4059A1046D117C3E90001FFF7A2BA85
:1079F000DDE90E0102460B4621F02AFE84460028EE
:107A000040F0FE85612C00F09285412C00F0A184AD
:107A1000049B24F020065A1C079600F09383472EFF
:107A200000F09485DDE90EAB02995B46002B41F432
:107A30008072C0F2AF8500234BEC18AB1893039112
:107A400008930292462E00F02384452E40F00684CF
:107A5000B0EE480AF0EE680A049B20A95D1C1DAB3D
:107A6000CDE900312A461CAB0221484600F0ACFFAC
:107A70000746054451EC180B0022002321F0B6FD07
:107A8000002800F0AE832B46DB1B0D931C9B0C9350
:107A9000079B472B00F07383079B462B00F0158450
:107AA00007990C9BE2B2412908BF0F3203F1FF3363
:107AB00006BFD2B201210021002B1C93B8BF0C9B42
:107AC0008DF87820BABFC3F101032D222B22092B98
:107AD0008DF8792040F384850DF1870CBB4E654607
:107AE00086FB0321DA17C2EBA10202EB8201A3EBB2
:107AF00041019E463031BEF1630F284605F8011C56
:107B0000134605F1FF35EBDC3033DAB2831E9C45BA
:107B1000294605F8012C40F203860DF17A0301E0B5
:107B200011F8012B03F8012B8C45F9D10DF18903D4
:107B30000DF17A021B1A13441EAA9B1A14930D9B73
:107B4000149A012B1A44079240F39785079B119AC8
:107B500013440793039B23F4806343F480730293DD
:107B6000079B002223EAE3730B9210920C9203937B
:107B7000189B002B40F02E839DF86B200493FFF799
:107B800038BA029D0A96FFF788BB914B0A96139369
:107B9000029B9F0640F10A81099B073323F00703EC
:107BA000F3E802AB0993029AD0070AD55AEA0B030D
:107BB00007D0302342F002028DF86D4002928DF81A
:107BC0006C30029B23F480650223FFF723BB0A96E7
:107BD000FFF74FBB7F4B0A961393D9E752420692A9
:107BE0000993FFF7AEBA19EE101A22AA484603F01D
:107BF00029F800287FF4E4AC249D0DF194082CE4CE
:107C000043F02003747802930136FFF777B843F40A
:107C10000073747802930136FFF770B8402148462C
:107C200001F0C4FFCBF80000CBF81000002800F0F2
:107C30007B854023CBF81430FFF72CB8049B0B97BF
:107C4000062B28BF06233A46049710970C970897EF
:107C50000393614F09950793FFF7CBB9102C239B32
:107C6000DFF878A140F30282524619EE10BABA4604
:107C70001026174605E008F10808103C102C40F3C8
:107C8000F28101331035072BCDE92335C8E90076A1
:107C9000F1DD22AA5946484602F0D4FF00287FF4BD
:107CA000DEADDDE923350DF19408E6E70D9B0C9779
:107CB0004246DDF84080DFF824B1FB1804935646B5
:107CC00019EE101ADDF85CA0159F0B9B2846B8F141
:107CD000000F2FD0002B30D1013F08F1FF38239B3C
:107CE000169C146001335044072B2490C2F804A062
:107CF000239375DC0832049C3B78A41B9C42A8BFEC
:107D00001C46002C0BDD239B166001332044072BFF
:107D100024905460239300F32D813B780832002C8B
:107D2000ACBF1C1B1C46002C0BDC1E440B9BB8F18B
:107D3000000FCFD1002B00F016820B9B013B0B9361
:107D4000CDE7102CDDF88CC022DD079610256346A8
:107D50000E4604E0103C102C02F1080215DD013340
:107D60001030072BCDE92330C2E900B5F2DD22AA9D
:107D70003146484602F066FF002840F03E82103C43
:107D8000102CDDE9233025AAE9DC3146079E9C460C
:107D90000CF101032044072BCDE92330C2E900B4E4
:107DA00000F33C823B7808321E44BFE70299099AEF
:107DB000CE0602F1040325D4029A55061CD5099A71
:107DC0000993B2F800A04FF0000BECE66766666618
:107DD000D09C0400E49C0400F89C0400109D040066
:107DE00022AA4846079102F02DFF0799002840F08B
:107DF0007084249825AA7EE7029A12F4007F099ADB
:107E000040F077811268099392464FF0000BCAE662
:107E100019EE101A22AA484602F014FF00287FF437
:107E2000CFABDDE923350DF19C08013325AE0AE423
:107E3000C34614E505F480630295CDF80C80159DCA
:107E4000A04600264EAF1C4609E021F03FFCBBF1E6
:107E5000000F08BFBAF10A0F1FD382468B460A22D1
:107E600000235046594621F031FC94460CF1300C69
:107E700007F801CC504659460A2200230136013F3B
:107E8000002CE2D095F800C06645DED1FF2EDCD094
:107E90009B4508BF924580F0F5804EABDB1B444606
:107EA0001595DDF80C800D960793FFF778BA239BA4
:107EB000C649C8F80010013301350121072BCDE96F
:107EC0002335C8F8041000F3F48008F10808002AEC
:107ED0007ED1029B0D9A03F0010313433FF40CA8DB
:107EE000239B129AC8F80020119AC8F80420013385
:107EF0001544072B2495239300F3158108F10808F6
:107F00000D9A01331544072BCDE92335C8E90072DA
:107F10007EF7F0AFFFF7A1BB19EE101A22AA484670
:107F2000189302F08FFE00287FF44AAB9DF86B2077
:107F3000249D189B0DF19408FEF7A2BF19EE101AAC
:107F400022AA484602F07EFE00287FF439AB249D29
:107F50000DF19408FFF76CBABB4680E4BA460133D2
:107F60002544072BCDE92335C8E900A47EF7C2AF2D
:107F7000FFF773BB22AA4846079102F063FE0799F8
:107F8000002840F0A6833B78249825AAC7E619EE7E
:107F9000101A22AA484602F055FE00287FF410ABC2
:107FA000249D0DF19408FEF78EBF012B029D7FF4F6
:107FB000DEA9FFF766BB059A1A60FEF7BBBF38461D
:107FC00002F09EFD3346049602460790FFF784B800
:107FD000239B1299C8F800101199C8F804100133B6
:107FE0000D44072B2495239300F39D8008F1080886
:107FF000002A85DA54421032DFF8D4A180F2808260
:10800000524619EE10BABA461026174605E008F196
:108010000808103C102C40F3708201331035072BF8
:10802000CDE92335C8E90076F1DD22AA5946484654
:1080300002F008FE00287FF412ACDDE923350DF1D3
:108040009408E6E7631C06F108025D44072BC6E9C5
:1080500000AB249523933FF7DBAE013302F1080810
:108060001646FFF7F0BA3A46574692460133254482
:10807000072BCDE92335C8E900A466DC08F1080820
:10808000FFF788BB179B1699FF1A1A46384602F06D
:10809000A5FD6B7803B101350A22002350465946ED
:1080A000002621F013FBD8E62D228DF86B20FEF779
:1080B0008EBF19EE101A22AA484602F0C3FD00280E
:1080C0007FF47EAA1C9A249D0DF19408FFE60D9A78
:1080D000BC18A4EB0A04D31A9C42A8BF1C46FFF7A5
:1080E00090BB93F800A009924FF0000B0123FFF71B
:1080F00091B892F800A009934FF0000B53E593F963
:1081000000A009914FEAEA7B52465B46FEF7FEBFAC
:1081100092F800A009934FF0000BFFF7B5B8059A4D
:108120001A80FEF707BF19EE101A22AA484602F07D
:1081300089FD00287FF444AADDE923351C9A0DF15E
:10814000940855E7062304936CE419EE101A22AA4A
:10815000484602F077FD00287FF432AA249D0DF1F5
:108160009408FFF717BB1597DDE90C73FB189E42C7
:10817000B2469046054628BF9A46FFF712BB0C9BB5
:10818000D81C02DB049A934204DD023C24F0200355
:10819000079385E4DDE90C318B42C0F28281039ABA
:1081A000D20740F16782119A13440793039B5B0542
:1081B00003D50C9B002B00F33082079B23EAE3736B
:1081C0000393672400230B931093D1E444A004008D
:1081D000109D04002D2200238DF86B200493FEF7E0
:1081E0000BBF209BAB42BFF44FAC30215A1C2092F6
:1081F0001970209B9D42F9D846E4B346FFF72FBB88
:1082000019EE101A22AA484602F01CFD00287FF43D
:10821000D7A9249D0DF19408FFF7B4BA22AA4846C5
:10822000079102F00FFD0799002840F052823B7839
:10823000249825AA1E4479E519EE101A22AA484668
:1082400002F000FD00287FF4BBA91C9B249D0DF1CA
:108250009408FFF7BEBAD346FFF701BB20AA1DABB7
:10826000CDE90032B0EE480AF0EE680A049A1CAB81
:108270000221484600F0A8FB472E074617D1039B72
:10828000DB0700F118814722209B0792FFF7FCBB18
:1082900020AA1DABCDE90032B0EE480AF0EE680A24
:1082A000049A1CAB0321484600F08EFB0746049B52
:1082B000462E07EB03057FF4DDAB3B78302B00F057
:1082C000E2811C9B1D44FFF7D5BB039B0C99049ACC
:1082D00003F00103002943EA020340F3FD81002B70
:1082E00040F0C2810C9B07936624039B5A0500F162
:1082F0009581079B23EAE373039363E7049B9DF84F
:108300006B2003930793049009950B9010900C90A9
:10831000FEF76FBE19EE101A22AA484602F092FC30
:1083200000287FF44DA91C9B0D9A249DD31A0DF1B2
:108330009408FFF766BA19EE101A484622AA02F00E
:1083400081FCBBF80C30FEF702BE00230493FEF75D
:10835000D6BC30238DF86C3058238DF86D30029BDD
:1083600043F002030393049B632B00F3E580002397
:10837000089335AF029A0F9B24F0200642F48172D5
:10838000002B02920796C0F281809DED0E8B002398
:108390001893612C00F00A81412C7FF453ABB0EEAE
:1083A000480AF0EE680A1CA802F060FB00224FF0B9
:1083B0007F5351EC100B20F0B1FE002200238246C7
:1083C0008B4621F013F908B101231C93B64B0B9394
:1083D000049B19973E4609EE909A0B9F10945D1EE0
:1083E000CDF8308003E021F001F9013D08BBAF4B2F
:1083F00000225046594620F091FE8946804621F0E1
:108400003DF9044620F020FE02460B464046494610
:1084100020F0CCFC17F804C0B5F1FF3FB14682460E
:1084200006F801CB8B464FF000024FF00003A84640
:10843000D9D19F4B199F0022504659464546DDF839
:108440003080CDE90C94109C19EE909A21F0F6F84A
:10845000002836D1964B50465946002221F0C6F8E6
:1084600010B10D9BDB072CD4002D2B4606DB01330E
:108470003344302206F8012BB342FBD1F31B0D939A
:10848000FFF704BB029B039308900295DDE90E23DE
:1084900003F1004308EE903A2D2308EE102A1893BA
:1084A00077E70D9B119A9A180C9B0792002B40F3CB
:1084B0000781672419E7049BFD1847230793FFF7FB
:1084C000D9BA0C9B20930B9B16F8012CD97B8A42BE
:1084D000334609D1302003F8010C209B5A1E20920C
:1084E00013F8012C9142F6D0392A0BBF0B9A0132B6
:1084F000927AD2B203F8012CC0E73A465746924628
:1085000001332544072BCDE92335C8E900A47FF7C3
:10851000F5AC19EE101A22AA484602F093FB002887
:108520007FF44EA8DDE923350DF19408E8E430230B
:108530008DF86C30782310E7591C484601F036FB63
:108540000746002800F0F880089013E7002B1A4631
:1085500008BF01220F9B0492029A002B42F48075FF
:1085600090DBDDE90EAB20AA1DABCDE900324BEC70
:1085700010AB1CAB049ACDF860C002214846664699
:1085800000F022FA029B03934BEC18AB07460295CE
:10859000089674E6029B039300230893029275E702
:1085A00019EE10BABBF80C30FEF7D1BC1CA8B0EE27
:1085B000480AF0EE680A02F059FA00224FF07F53A1
:1085C00051EC100B20F0AAFD0022002382468B46BE
:1085D00021F00CF808B101231C93364B0B93F7E6FE
:1085E000002940F0898030228DF87A200DF17B023D
:1085F000303302F8013B1EABD31A1493FFF79FBA36
:108600000F9B2D4F002BB4BF2D229DF86B202B4BC1
:10861000B8BF8DF86B20FEF7DCBC672415990B788A
:10862000FF2B79D000250C9A284603E00130013158
:10863000FF2B08D0934206DAD21A4B78002BF5D1E3
:108640000B780135F4E715910C9210900B950B9A6D
:10865000109B07991344179A02FB0313079323EA0D
:10866000E3730393FFF784BA119BCB181A44079264
:1086700066243AE60C9B079398E5039BD9077FF5A0
:1086800069AAFFF763BA51EC180B0022002320F00F
:10869000ADFF00287FF415AE049BC3F101031C93CA
:1086A0001D44FFF7E7B900BFE49C04000000304020
:1086B0000000E03FD09C0400C89C0400CC9C040057
:1086C000C3F101031A4422EAE27307920393672479
:1086D00078E58B46FFF7C3B823B9012303930793CB
:1086E00066246FE5119B049A01331A4422EAE2736F
:1086F00007920393662465E50DF17A0278E7424616
:10870000A3E4099B747853F8041B0993164641EAC5
:10871000E1720492FEF7F2BA00230B93109396E7EE
:1087200002231493FFF70BBA0C23C9F800304FF063
:10873000FF330593FEF712BC19EE10BABBF80C30EC
:1087400043F04003ABF80C30FEF701BC2DE9F047D5
:10875000DFF87CA00646DAF8000098460F469146FE
:1087600001F020FA194B1B68D3F8484124B365681F
:10877000DAF800001F2D24DC4EB9AB1C0135656012
:1087800044F8237001F010FA0020BDE8F08704EBF4
:1087900085030122C3F88890D4F88811AA401143B8
:1087A000022EC4F88811C3F80881E6D1D4F88C31C0
:1087B0001A43C4F88C21E0E703F5A674C3F84841D6
:1087C000D5E701F0F1F94FF0FF30DEE7BC9C040083
:1087D00000220020024B13B10248FDF7E1BF7047B1
:1087E00000000000CD6702002DE9F84F2C4B2DED65
:1087F000028B834618680F4601F0D4F9294BD3F851
:108800000080D8F84861AEB108EE10BA4FF0010907
:108810004FF0000A7468651E0CD4013406EB840422
:1088200087B1D4F80031BB420CD0013D6B1CA4F1E0
:108830000404F5D1BDEC028B194B1868BDE8F84F64
:1088400001F0B2B973682268013BAB420CBF75609E
:10885000C4F800A0002AE8D0D6F88811D6F804B0F1
:1088600009FA05FC1CEA010F0BD190477168D8F892
:108870004821594501D19642D7D0002ADAD0164670
:10888000C8E7D6F88C31D4F880101CEA030F03D166
:1088900018EE100A9047E9E708469047E6E700BF60
:1088A00000220020BC9C04002DE9F04F03690E69F2
:1088B000B34283B0C0F28280013E01F1140700F19F
:1088C000140A57F826305AF8262001338346B000A0
:1088D00000909A420AEB860007EB86090190B2FBF2
:1088E000F3F836D300252A46BC4650465CF8044BC4
:1088F00003681FFA84FE08FB0E554FEA154E240C40
:1089000008FB04E4ADB2551BA2B2C2EB134215FA48
:1089100083F302EB23429BB243EA0243E14540F872
:10892000043B4FEA14454FEA2242DFD2009B5AF83B
:10893000033073B9019B043B9A4504D307E09A4581
:1089400006F1FF3603D253F80429002AF7D0CBF8FA
:108950001060584601F04EFF00282BDB08F101089B
:108960005046002357F8041B04688AB29A1A0B0C6D
:1089700012FA84F2C3EB144303EB224392B242EAAD
:108980000342B94540F8042B4FEA2343EAD25AF890
:1089900026200AEB86036AB9043B9A4504D307E014
:1089A0009A4506F1FF3603D253F80429002AF7D07E
:1089B000CBF81060404603B0BDE8F08F002003B054
:1089C000BDE8F08F000000002DE9F04F2DED048B85
:1089D00057EC106B9BB0056C0491CDE9066704461B
:1089E0000B9209934DB1426C6A6001239340AB60D6
:1089F000294601F0C9FC00232364B7F10009289A35
:108A0000B4BF012300231360794BBCBF29F0004998
:108A1000CDF81C9033EA090300F0AD809DED067B94
:108A2000002251EC170B00238DED027B20F0DEFDC0
:108A3000804680B1099A01231360299B002B00F026
:108A4000DB826C481860431E019301981BB0BDEC9B
:108A5000048BBDE8F08F9DED020B18AA19A92046E2
:108A600001F08AFF5FEA1955834640F09C80DDE9FA
:108A70001885454405F23243202B40F3AA83C3F105
:108A8000400305F2124009FA03F926FA00F049EA18
:108A9000000020F0C9FA0123013DA1F1F8710F9304
:108AA000554B002220F082F94BA3D3E9002320F09C
:108AB00035FB4BA3D3E9002320F07AF9064628467C
:108AC0000F4620F0C1FA48A3D3E9002320F026FB8B
:108AD00002460B463046394620F06AF906460F46F4
:108AE00020F0CCFD0022814600233046394620F09C
:108AF00087FD002840F07382A8EB05056B1EB9F1D5
:108B0000160F059300F25F823C4B03EBC903D3E9D8
:108B10000023DDE9020120F073FD002874D000235A
:108B20000E93059B002B09F1FF39C0F252820023FE
:108B30000A93B9F1000F6DDA0A9BCDF82090A3EBF0
:108B400009030A93C9F100030D93049B092B4FF00D
:108B5000000969D8052B40F33A83043B04930025B0
:108B6000049B023B032B00F28A86DFE813F04204E9
:108B70003F0437041A04099A42F20F73C9F3130928
:108B8000136059EA06031ED1299B002B00F073865F
:108B90001B4B01930833299A019813601BB0BDEC5D
:108BA000048BBDE8F08FDDE90212C2F3130308461F
:108BB00043F07F51CDF83C80A5F2FF35DDF86080B1
:108BC00041F440116CE7299B002B40F0DA830D4BF8
:108BD00001933AE7AFF3008061436F63A787D23F09
:108BE000B3C8608B288AC63FFB799F501344D33F9C
:108BF0000000F07F45A004000000F83F009E040044
:108C0000249D0400209D0400059B002BC0F2C0841D
:108C10000E900A90059BCDF820904B4405930023BD
:108C20000D93049B092B95D900230125CDE90B3524
:108C300004934FF0FF3A00216164CDF848A020462C
:108C400001F07CFB0190002800F02186019B236449
:108C5000BAF10E0F00F20281002D00F0FF8008999A
:108C6000002940F35F84C14B01F00F0203EBC20304
:108C7000CA05D3E900674FEA211540F1F183BC4BE7
:108C8000DDE90201D3E9082320F072FB032341EC64
:108C9000180B05F00F051093DDB1CDF84CA0DFF8EF
:108CA000D082CA46DDF84090EB0709D530463946F8
:108CB000D8E9002320F032FA09F1010906460F46EF
:108CC0006D1008F10808EFD1CDF84090D146DDF8DD
:108CD0004CA03B4651EC180B324620F049FB0746AE
:108CE00088460E9B43B1A34B00223846414620F0F4
:108CF00087FC002840F04985109820F0A5F93A46F5
:108D0000434620F00BFA9C4B002220F051F8A1F1D1
:108D10005073CDE910011193BAF1000F00F0CD832B
:108D2000089B1793CDF84CA03846414620F0A6FC8E
:108D3000139A8E4B03EBC20313ED027B00F1300557
:108D4000EBB28DED147B169320F07EF902460B46B4
:108D50003846414620F02AF8019A0F460C990646FB
:108D6000551C002900F0B284DDE91423834900205A
:108D700020F0FEFADDE9102320F018F8019A169B86
:108D8000137032463B4641EC180B20F057FC00288C
:108D900040F0658509EE10BACDF84090CDF850A0AE
:108DA0004FF000085BEC18ABA94608EE104A139C84
:108DB0002AE008F10108A04548DA714B50465946AF
:108DC000002220F0ABF96E4B002282468B463046E3
:108DD000394620F0A3F90F46064620F04FFC054621
:108DE00020F032F902460B46304639461FF0DEFFCE
:108DF000303509F8015B52465B4606460F4620F0C7
:108E0000FFFB002840F0FF8432463B4659490020D2
:108E10001FF0CCFF52465B4620F0F2FB0028C8D082
:108E200019EE10BA18EE104A4D46179B019A0133FD
:108E3000089302E0AA4200F0D084A94615F8013D4B
:108E4000392BF7D00133DBB22B70A0E1DDF8409075
:108E5000DDF850A019EE10BA18EE104A199B002B3D
:108E6000C0F29280089A0E2A00F38E803F4B03EBEB
:108E7000C203D3E900890B9B002B1ADABAF1000F69
:108E800017DC40F035833F4B40460022494620F036
:108E900045F902460B46DDE9020120F0BBFBD04656
:108EA0005546002800F0BE820B9BDDF80490DA43A3
:108EB000BFE2DDE9025642464B462846314620F0E5
:108EC00057FA20F0DBFB0746049020F0BDF842463D
:108ED0004B4620F023F90B460246314628461FF048
:108EE00065FF019D3B463033BAF1010F05F8013BA8
:108EF00000F09083012308EE10BA08EE904AD346A2
:108F00002C461D461CE042464B463046394620F072
:108F10002FFA20F0B3FB824620F096F842464B46EB
:108F200020F0FCF801350B460246394630461FF06A
:108F30003DFF0AF13003AB4504F8013B00F06383C9
:108F40000F4B002220F0EAF80022002306460F46CD
:108F500020F04CFB0028D6D0089B2546013318EEA4
:108F600010BA18EE904A0893A94610E1009E04003A
:108F7000D89D04000000F03F00001C400000E03FCE
:108F800000002440000014400C9A002A3CD0049AAF
:108F9000012A40F3B1820D9B0AF1FF37BB42C0F2B8
:108FA0005982DF1BBAF1000FC0F26883059B53445E
:108FB00005930A9B1E4653440A930121204601F063
:108FC00093FA054623E001230E93059B002BBFF681
:108FD000AEADC5F101030A9300230593A9E5484608
:108FE00020F032F832463B4620F000FB00287FF4A8
:108FF00083AD09F1FF397FE5C54B019301981BB0A3
:10900000BDEC048BBDE8F08F0D9F0A9E0C9D002ED9
:109010000CDD059A002A09DD0A99B2421346A8BF61
:109020003346C91AF61AD31A0A9105930D9BD3B188
:109030000C9B002B00F09E81002F10DD29463A4644
:10904000204601F017FB5A4601460546204601F02E
:1090500061FA59468046204601F096F9C3460D9BB9
:10906000DA1B40F088810121204601F03DFAB9F178
:10907000000F804600F3B280049B012B40F38581F2
:1090800000270120B9F1000F40F0B380059A104489
:1090900010F01F0000F09280C0F12003042B40F379
:1090A000FD830A9BC0F11C00034402440A9306445A
:1090B00005920A9B002B05DD59461A46204601F011
:1090C00025FB8346059B002B05DD41461A462046BD
:1090D00001F01CFB80460E9B002B40F03081BAF162
:1090E000000F40F317810C9B002B40F09A80089BE7
:1090F00001330893019F012607E0594600230A2205
:10910000204601F04BF90136834641465846FFF7A9
:10911000CBFB564500F1300007F8010BEDDBBAF14F
:10912000000F019ACCBFD1464FF00109034691448C
:109130000027594601222046049301F0E7FA4146F0
:10914000834601F057FB002819F8012C40F3968163
:10915000019909F1FF3304E0994200F0DC8113F832
:10916000012D392A03F10109F6D001321A70414666
:10917000204601F009F955B12FB1AF4203D039466D
:10918000204601F001F92946204601F0FDF8594634
:10919000204601F0F9F8002389F80030099B1A46AF
:1091A000089B1360299B002B3FF44FAC0198C3F838
:1091B00000901BB0BDEC048BBDE8F08F1C200A9B17
:1091C00003440A93059B03440644059371E7012574
:1091D000C6E4C3F1200306FA03F05AE401464A4606
:1091E000204601F047FA049B012B804640F3D281D0
:1091F0000027D8F8103008EB8303186901F024F930
:10920000C0F1200042E7294600230A22204601F04F
:10921000C5F8129B002B054640F31483CDF820902F
:109220009A46002E00F30F81002F40F010822E4648
:10923000069B0199049803F001024B1E53440C92C3
:1092400002430B920A938A4641465846FFF72CFB8D
:10925000294603465846029301F0CCFA32460746A7
:109260004146204601F0E4FA029BC2688146303351
:10927000002A3FD101465846069301F0BBFA494601
:109280000590204601F080F8DDE905231AB90B9915
:10929000002900F0C082002F0AF10109C0F292817A
:1092A00004990F430C99394300F08C81002A00F394
:1092B000F5810A9A8AF80030524500F0FD8159463E
:1092C00000230A22204601F069F8B5428346294668
:1092D0004FF000034FF00A02204613D001F05EF871
:1092E0003146054600230A22204601F057F8CA46B7
:1092F0000646A9E701462046059301F045F8059B7F
:109300000122C8E701F04AF8CA46054606469BE72F
:1093100044A00400049B022B72DC0C9B002B80D128
:1093200041465846FFF7C0FA089ADDF8049000F16C
:109330003003013209F8013B08920027F9E6414663
:10934000584601F057FA0028BFF6C9AE5946002327
:109350000A22204601F022F8089B03F1FF390C9BFA
:109360008346002B7FF44FAF129B002B40F36382A8
:109370009A46BFE60D9A5946204601F07BF983468E
:1093800071E6C04B0193033305E4DDE906120029C1
:109390007FF476AEC2F31303002B00F00681069F24
:1093A0006FE601230C930B9B089A134403F1010A07
:1093B0005646012E1293B8BF01260021172E616474
:1093C0007FF73DAC012204235B0003F11400B0429F
:1093D000114602F10102F7D9616430E401230C93D4
:1093E0000B9E002E45DD1296B246E6E700230C9355
:1093F000D9E700230C93F3E7DDF848A0CDF82090DF
:10940000BAF1000F7FF450AD414653460522204685
:1094100000F0C4FF01468046584601F0EBF90028F1
:109420007FF742ADDDF80490089A312309F8013B3B
:109430000132531C41462046089300F0A5FF002D41
:109440007FF4A1AEA3E629463246204601F05EF93C
:109450000546E9E60D9B0D97FB1A99440027A1E507
:109460009DED027B02231093B0EE478AF0EE678AEF
:1094700012E401230B939A46FFF7DDBB03D1049B53
:10948000DB073FF565AE09F1FF3301E013F8012D6D
:10949000302A03F10109F9D069E610981FF0D4FDD4
:1094A0003A4643461FF03AFE774B00221FF080FCFD
:1094B000A1F15073CDE910011193744B384600228D
:1094C00041461FF073FCDDE9102306460F4620F0ED
:1094D000B5F8002840F08D81DDE91001024601F168
:1094E00000433046394620F08BF800283FF4B6ACF4
:1094F0004FF000084546D7E40F9A002A00F0E280BA
:1095000003F23343059A0D9F1A4405920A9A1646B0
:109510001A440A9251E5089A01320892019A3123BD
:10952000137024E600F02B81089B5D42584B05F038
:109530000F0203EBC203D3E90023DDE902011FF0B0
:10954000EDFD2D110746884600F085810222514E1F
:1095500048EC187B0023D046CA469146EF0706D553
:10956000D6E900231FF0DAFD09F1010901236D108E
:1095700006F10806F2D1CDF84090D146C24658EC2B
:10958000187B002B3FF4ADAB07468846FFF7A9BB1D
:109590000E901EE5069B002B7FF42AAEDDE9061235
:1095A000C2F31303002B7FF423AE3B4F1740002F71
:1095B0003FF467AD0A9B01330A93059B0133059382
:1095C00001275EE50899CDF810A00131002ADDF8E9
:1095D00008A0089112DD594601222046029301F0AD
:1095E00095F84146834601F005F90028029B40F3B7
:1095F0000481392B00F0F7800AF13103049A2F46D9
:1096000013703546B3E5254618EE10BA18EE904AA9
:10961000CDF810A002460B461FF0CAFB4B4642464F
:1096200006460F4620F00AF8089B0133089348B914
:1096300042464B46304639461FF0D8FF28B1049BBE
:10964000D90702D5019AFFF7F8BBA9469FE56968DB
:10965000204600F073FE0646002800F005812B69C5
:1096600002339A0005F10C010C3000F0C1FD3146C7
:109670000122204601F04AF80646D9E50A9BA3EBF1
:109680000A069AE4209D040000001C4000001440DB
:10969000009E0400D89D04000000F07F089ACDF8D9
:1096A00010A00132392B089200F09D80049A0133FA
:1096B0002F46137035465AE5089A01322F46089214
:1096C000354636E5189BC3F136031BE7DDE9102369
:1096D000DDE914011FF022FD019B1A46169B137051
:1096E000139B012B41EC180B25D0139B019ACDF84D
:1096F0004CA01344CDF840909A46704B002230465F
:1097000039461FF00BFD894680461FF0B7FF07461C
:109710001FF09AFC303702460B46404649461FF080
:1097200045FB05F8017BAA4506460F46E5D1DDF865
:109730004090DDF84CA0624B002251EC180B1FF05A
:1097400037FB32463B461FF05BFF00287FF46DABD2
:1097500053EC182B5A4900201FF028FB32463B4699
:109760001FF06CFF00283FF479ABA946013D19F8C2
:10977000013C302BF9D0179B0133089307E50223F6
:10978000DDE902781093FFF7ACBABAF1000F3FF4AD
:1097900084AE129D002D7FF761AB484B38464146A1
:1097A00000221FF0BBFC0246109817468846013085
:1097B0001FF04AFC3A4643461FF0B0FC414B0022E2
:1097C0001FF0F6FAA1F15073CDE910011193089B37
:1097D0001395013B1793FFF7A7BA089B0133089332
:1097E00031232B70D3E4049B39222F461A7035465F
:1097F000AEE44FF00008454614E67FF4FFAEDA070A
:109800007FF5FCAEF5E6179B013319EE10BA18EEA2
:10981000104A0893BBE4089ACDF810A051460132D3
:10982000392BDDF808A0089201F10109DBD0002FE7
:109830003FF7E2AEE2E6049B022B3FF7DDADCDF849
:1098400020906DE5049B022B3FF7D6ADDDF848A0D4
:10985000CDF82090E5E402231093FFF742BA179B5E
:1098600001330893A94692E40246174B174840F289
:10987000EA2101F071FA164B0193FFF7E6B80025D3
:1098800065642946204600F059FD019058B90E4BF9
:109890000E4800224FF4D57101F05EFA3FF409AC96
:1098A000C0F13C008BE44FF0FF33019A12939A46CB
:1098B000012322640B950C93FFF7D0BA00002440DB
:1098C0000000E03F00001C40309D0400449D040067
:1098D000249D0400F8B5244F0C46064600F022FDF6
:1098E000BB685D68C4F57E610F3125F003054B1937
:1098F00023F47F6323F00F03A3F58054B4F5805F56
:1099000007DB0021304601F09FF8BB682B449842EA
:1099100004D0304600F00CFD0020F8BD6142304616
:1099200001F092F801300DD0104AB96813682D1B70
:1099300045F0010530461B1B4D60136000F0F8FC3C
:109940000120F8BD0021304601F07EF8BA68831A84
:109950000F2BDEDD064C0549246843F00103001B94
:1099600053600860D5E700BF70230020082900205D
:1099700078270020002963D0F8B50C46064600F091
:10998000D1FC54F8045C7D4925F00100A4F1080CD9
:109990000CEB00038F685A689F4222F0030200F02C
:1099A0008E80ED075A6003EB020736D454F808ECBA
:1099B0007C68ACEB0E0C01F10807DCF80850BD42E6
:1099C000704404F0010468D0DCF80CE0C5F80CE049
:1099D000CEF80850002C00F0998040F00102CCF83D
:1099E00004201860B0F5007F33D2C3084C680133FF
:1099F000420901209040204301EBC30251F833405B
:109A00004860083ACCE9024241F833C0C4F80CC0BF
:109A10003046BDE8F84000F08BBC7D68ED0710D4FF
:109A2000104401F108079A68BA4240F0010475D069
:109A3000DB68D3609A60CCF804404CF80000D1E7B2
:109A4000704740F00102B0F5007F44F8042C186024
:109A5000CBD3B0F5206F4FEA50234CD2830903F1EA
:109A60003905ED0003F138024B594C19083C9C4272
:109A70005DD05A6822F00302824202D99B689C4260
:109A8000F7D1DC68CCE902343046C4F808C0C3F82A
:109A90000CC0BDE8F84000F04BBC002C68D1D3E905
:109AA0000231024442F00100D9608B60CCF804001E
:109AB00030464CF80220BDE8F84000F039BCEF0712
:109AC000024408D454F8083CACEB030C1A44DCE91B
:109AD0000203C36098602A4B1B6842F00100934266
:109AE000CCF80400C1F808C092D8264B304619685B
:109AF000FFF7F0FE8CE7142B0AD9542B1FD8030B69
:109B000003F16F05ED0003F16E02ADE710448AE743
:109B100003F15C05ED0003F15B02A5E7C1E904CCAC
:109B2000CCE90277CCF804404CF8000070E74868B4
:109B30009210012505FA02F202434A60A2E7B3F54A
:109B4000AA7F06D8C30B03F17805ED0003F1770275
:109B50008AE740F25452934206D8830C03F17D0504
:109B6000ED0003F17C027FE74FF47E757E227BE7F8
:109B700040F00102CCF80420186049E7702300206F
:109B80007C2700203829002000487047F42200205C
:109B9000014B93F82801704704220020704700BF52
:109BA000704700BF704700BF704700BF2DE9F04FFE
:109BB00001F10B05162D83B0064623D8102900F2BB
:109BC000A78000F0AFFB102502201823CA4F3B44AA
:109BD000A3F108025C68944200F0A780636823F058
:109BE00003032344D4E902515A68E96042F00102B8
:109BF00030468D605A6000F09BFB0834204603B06D
:109C0000BDE8F08F35F0070500F18280A9427FD8CA
:109C100000F088FBB5F5FC7FC0F0A2816B0A7ED016
:109C2000042B00F25D81AB0903F1390003F1380C1C
:109C3000C300B14F3B44A3F108015C68A14206D1C7
:109C40000CE0002A80F21981E468A14206D0636822
:109C500023F003035A1B0F2AF3DD60463C69DFF84B
:109C6000AC8244456CD0626822F00302531B0F2B78
:109C700000F38481002BC7E9048880F27581B2F576
:109C8000007F80F00881D1080131520901239340FF
:109C90007A6857F831C0C4F808C007EBC10E134307
:109CA000AEF10802E2607B6047F83140CCF80C402E
:109CB00082104FF0010C0CFA02FC9C4548D81CEABB
:109CC000030F08D120F003004FEA4C0C1CEA030FED
:109CD00000F10400F8D007EBC00AD6468146DEF852
:109CE0000C300BE0596821F003014A1B0F2A1C4677
:109CF000DB6800F30F81002A80F225819E45F1D1B7
:109D000009F1010919F0030F0EF1080EE7D16AE11C
:109D10000C2333600024204603B0BDE8F08F4FF4DD
:109D2000007340204FF03F0C83E7DC68A34208BF7C
:109D300002307FF453AF3C69DFF8D081444592D1C3
:109D40007B6882104FF0010C0CFA02FC9C45B6D9DE
:109D5000BC68636823F00308454503D8A8EB0503F6
:109D60000F2B7ADCDFF8A891644BD9F800201B6830
:109D700001322B4404EB080A00F0508103F58053B4
:109D80000F3323F47F6B2BF00F0B5946304600F056
:109D90005BFE411C024600F00B81824500F2068109
:109DA000574B196859441960084600F06B81D9F87F
:109DB0000010019301311BBFA2EB0A0A5044C9F8FD
:109DC0000020186012F0070A00F03481CAF108017F
:109DD0000A44CAF5805193440831A1EB0B01C1F349
:109DE0000B0949463046009200F02EFE421CDDE988
:109DF000002300F06C81801A00EB090B1968BA602F
:109E00004BF001004944BC425060196000F04681AB
:109E1000B8F10F0F40F244816068A8F10C0C2CF0EF
:109E2000070C00F0010004EB0C0E40EA0C004FF0B0
:109E30000508BCF10F0F6060CEE9018800F24F8188
:109E4000506814462F4B1A688A4238BF19602E4B4F
:109E50001A688A4238BF1960ACE0621943F0010306
:109E600045F0010565603046BA60536000F060FA65
:109E70000834204603B0BDE8F08F2344E1685A68F7
:109E8000A56842F00102E96030468D605A6000F03A
:109E90004FFA08343FE7B2F5206F4FEA52237FD3E1
:109EA000142B00F2D88003F15C01C9005B3307EB8F
:109EB000010C7958ACF1080C8C4500F0B2804B686D
:109EC00023F00303934202D989688C45F7D1D1F876
:109ED0000CC07B68C4E9021CCCF80840CC60E7E603
:109EE000142B75D9542B00F2BE802B0B03F16F009D
:109EF00003F16E0CC3009CE670230020382900207B
:109F0000082900203029002034290020782300204F
:109F100078270020D4F808E004EB050C45F0010593
:109F2000656042F00105CEF80C303046C3F808E019
:109F3000C7E904CCCCE90288CCF80450625000F0A8
:109F4000F7F90834E7E6214454F8085F4A6842F01C
:109F500001024A603046EB609D6000F0E9F9DAE604
:109F6000E80805F1080331E622443046536843F01F
:109F700001035360083400F0DBF9CCE6611945F0C9
:109F8000010C43F00105C4F804C03046C7E90411D0
:109F9000C1E902884D60A35000F0CAF90834BAE65E
:109FA000930903F13901C900383380E7BC4264D01A
:109FB000BC68606820F0030B5D45ABEB050302D87D
:109FC0000F2B3FF74AAF304600F0B2F90024A2E66B
:109FD00003F15C0003F15B0CC3002AE65AF8083970
:109FE000534540F09B8010F0030F00F1FF30F5D196
:109FF0007B6823EA0C037B604FEA4C0C9C453FF6E0
:10A00000A7AEBCF1000F04D1A2E64FEA4C0C09F157
:10A0100004091CEA030FF8D048465CE603F1100B74
:10A02000B3E69A104FF0010E7B680EFA02F213436A
:10A030007B604FE702EB0B014942C1F30B09494634
:10A040003046009200F000FD431CDDE900237FF460
:10A05000D2AED146D2E6542B25D8130B03F16F01B3
:10A06000C9006E3323E7B3F5AA7F25D8EB0B03F1C4
:10A07000780003F1770CC300DBE5294B18685844DE
:10A08000186094E6CAF30B0CBCF1000F7FF48FAE9E
:10A09000BC68C3444BF001006060D3E61446D1E6CF
:10A0A000012353608FE7B3F5AA7F23D8D30B03F1C5
:10A0B0007801C9007733FAE640F25452934223D82C
:10A0C000AB0C03F17D0003F17C0CC300B1E5AAF1F8
:10A0D000080AD344ABEB020B4FF000098EE604F103
:10A0E000080130460093FFF745FCBC68009B6068A0
:10A0F0001968A7E640F254518B420BD8930C03F138
:10A100007D01C9007C33D2E64FF47E737F204FF08F
:10A110007E0C8EE54FF47E717E23C8E67B686BE78C
:10A120000829002082B049B15AB16BB113780B6095
:10A130001278101E18BF012002B0704701A9002A32
:10A14000F3D1104602B070476FF00100F4E700BF92
:10A1500001F0FF01102A2BDB10F0070F08D010F8D8
:10A16000013B013A8B422DD010F0070F42B3F6D1DC
:10A17000F0B441EA012141EA014122F007047FF0F5
:10A1800000070023F0E80256083C85EA010586EA4C
:10A19000010685FA47F5A3FA87F586FA47F6A5FA88
:10A1A00087F68EB9EED1F0BC01F0FF0102F0070294
:10A1B00032B110F8013B013A83EA010313B1F8D13F
:10A1C0000020704701387047002D06BF3546033820
:10A1D000073815F0010F07D1013015F4807F02BF59
:10A1E000013015F4C03F0130F0BC0138704700BFAA
:10A1F000844641EA000313F003036DD1403A41D392
:10A2000051F8043B40F8043B51F8043B40F8043B50
:10A2100051F8043B40F8043B51F8043B40F8043B40
:10A2200051F8043B40F8043B51F8043B40F8043B30
:10A2300051F8043B40F8043B51F8043B40F8043B20
:10A2400051F8043B40F8043B51F8043B40F8043B10
:10A2500051F8043B40F8043B51F8043B40F8043B00
:10A2600051F8043B40F8043B51F8043B40F8043BF0
:10A2700051F8043B40F8043B51F8043B40F8043BE0
:10A28000403ABDD2303211D351F8043B40F8043B80
:10A2900051F8043B40F8043B51F8043B40F8043BC0
:10A2A00051F8043B40F8043B103AEDD20C3205D390
:10A2B00051F8043B40F8043B043AF9D2043208D088
:10A2C000D2071CBF11F8013B00F8013B01D30B88FA
:10A2D00003806046704700BF082A13D38B078DD0D8
:10A2E00010F003038AD0C3F10403D21ADB071CBFAA
:10A2F00011F8013B00F8013B80D331F8023B20F814
:10A30000023B7BE7043AD9D3013A11F8013B00F84C
:10A31000013BF9D20B7803704B7843708B788370D4
:10A32000604670470148FFF73DBC00BF88740020BD
:10A330000148FFF739BC00BF88740020C36C70B5BA
:10A3400005460C464BB153F8240080B1026843F82F
:10A3500024200023C0E9033370BD2122042100F032
:10A3600019FD0346E8640028EDD1002070BD0121ED
:10A3700001FA04F6721D2846920000F00BFD002839
:10A38000F3D0C0E90146E4E731B1C36C4A6853F841
:10A390002200086043F82210704700BF2DE9F843FF
:10A3A0000F69884681461D4601F1140000210668A8
:10A3B000B4B202FB04531C0C350C02FB0545013101
:10A3C0009CB204EB05448F4240F8044B4FEA15451C
:10A3D000EDDC4DB1D8F80830BB4208DD08EB87034F
:10A3E00001375D61C8F810704046BDE8F883D8F8C1
:10A3F000041048460131FFF7A1FF0446D0B1D8F858
:10A400001020023208F10C0192000C30FFF7F0FE30
:10A41000D9F84C30D8F8042053F82210C8F80010AE
:10A4200043F82280A04608EB870301375D61C8F836
:10A430001070D9E70246024B0248B52100F08CFCAF
:10A44000309D0400949D0400030C1B04D3B9000448
:10A45000102310F07F4F04BF0002083310F0704F3C
:10A4600004BF0001043310F0404F04BF80000233EA
:10A47000002805DB10F0804F03F1010308BF202303
:10A48000184670470023E4E7036813F0070201460B
:10A4900007D0DA0720D4980722D55B080B6001208B
:10A4A000704798B2A8B1104613F0FF0F04BF1B0A03
:10A4B00008301A0704BF1B0904309A0704BF9B0821
:10A4C0000230DA0703D45B0800F1010006D00B600C
:10A4D00070471B0C1020E7E70020704720207047D2
:10A4E0009B080B600220704710B50C460121FFF756
:10A4F00025FF024618B10123C0E9043410BD034B07
:10A5000003484FF4A07100F027FC00BF309D040009
:10A51000949D04002DE9F04F0D691769BD4285B087
:10A520000E46144605DB3A4623462F460C46154692
:10A530001E46D4E9011307EB05084345B8BF0131B6
:10A54000FFF7FCFE0190002800F08880019B03F1DA
:10A55000140909EB880AD14505D24B46002243F87D
:10A56000042B9A45FBD806F1140E0EEB850B04F173
:10A570001403DE451A4603EB87073ED23B1B153B0F
:10A5800023F0030304331534A74238BF0423CDE975
:10A5900002A89846924603E0F34509F104092AD936
:10A5A0005EF8040B86B2002E38D1000CF4D0D9F836
:10A5B000003054461E464D464FF0000C2288360CA3
:10A5C00000FB0266B4449BB243EA0C4345F8043BEB
:10A5D00054F8043B2E681B0CB2B200FB032303EBC0
:10A5E0001C43A7424FEA134CE8D8F34549F808301A
:10A5F00009F10409D4D8DDE902A8B8F1000F03DCA1
:10A6000006E0B8F1010803D05AF8043D002BF8D059
:10A610000198C0F8108005B0BDE8F08F55464C4653
:10A62000002355F8041B20688AB21FFA80FC06FB41
:10A6300002C2090C000C134406FB010202EB134298
:10A640009BB243EA0243AF4244F8043B4FEA124351
:10A65000E7D849F808305EF8040CA6E70246034B39
:10A66000034840F25D1100F077FB00BF309D04000D
:10A67000949D040012F003032DE9F04114460746AF
:10A680002ED10E46A4101CD0BD6C95B3E3074FF03D
:10A69000000806D4641014D02868A8B10546E30762
:10A6A000F8D52A4631463846FFF734FFB6B171680F
:10A6B000FB6C641053F82120326043F82160064699
:10A6C000EAD13046BDE8F0812A4629463846FFF7F0
:10A6D00021FF2860C0F800800546E0E70646D9E77C
:10A6E000013B094A52F823200023FFF757FE064694
:10A6F000C8E740F271213846FFF7F6FE0023B86440
:10A7000005460360C2E700BFC89E04002DE9F0477C
:10A710000F690D46D1E9011307EB62177E1C9E42BB
:10A72000914680464FEA621404DD5B009E4201F1CF
:10A730000101FADC4046FFF701FE00284FD0002C53
:10A7400000F114010DDD621D4FEA820C0B4600EB97
:10A750008202002443F8044B9342FBD1ACF1140372
:10A7600019442C6905F1140319F01F0903EB840C3B
:10A770002DD0C9F120028E464FF0000A1C6804FA61
:10A7800009F444EA0A044EF8044B53F8044B9C4580
:10A7900024FA02FAF2D8ACEB0503153B23F00303CD
:10A7A000043305F11502944538BF0423BAF1000FB4
:10A7B00018BF374641F803A0D8F84C306A680761E3
:10A7C00053F82210296043F82250BDE8F08704397D
:10A7D00053F8042B41F8042F9C45F9D8ECE70246C6
:10A7E000024B034840F2D91100F0B6FA309D040044
:10A7F000949D040030B40B6905460069C01A11D15C
:10A800001435143101EB830205EB830301E09D4213
:10A8100008D253F8044D52F8041D8C42F7D003D2ED
:10A820004FF0FF3030BC7047012030BC704700BF94
:10A830002DE9F84F0D690C4611696D1A002D9046EF
:10A840007AD104F11407143207EB810302EB810281
:10A8500001E09F4273D253F8046D52F8041D8E42FA
:10A86000F7D064D36168FFF769FD002871D02769CC
:10A87000D8F81030C56004F1140A08F1140500F18D
:10A88000140605EB830910340AEB870EB446002347
:10A8900055F804BB54F8042F1FFA8BF113FA82F316
:10A8A0004FEA1B4B591ACBEB124303EB214389B2FE
:10A8B00041EA0341A9454CF8041B4FEA2343E7D87A
:10A8C000A9EB0802153A08F11508C14522F0030565
:10A8D00005F1040538BF0425AA4422F0030238BF5D
:10A8E0000022D6453544164418D92E46524652F811
:10A8F000044B13FA84F10B1403EB144389B241EABD
:10A900000341964546F8041B4FEA2343EFD80EF166
:10A91000FF36A6EB0A0626F003062E4421B956F8A8
:10A92000043D013F002BFAD00761BDE8F88F2346B4
:10A9300001254446984695E7F9DB002592E700217A
:10A94000FFF7FCFC60B101220023C0E90423BDE84D
:10A95000F88F0246064B07484FF4107100F0FCF9DF
:10A960000246034B034840F2322100F0F5F900BFE4
:10A97000309D0400949D04002DE9F043884683B087
:10A98000012157EC106B1546FFF7D8FC0446002850
:10A990004FD0C7F30A59C7F31303B9F1000F01D021
:10A9A00043F48013002E019324D068460096FFF7ED
:10A9B0006BFD002839D0DDE90013C0F1200203FA55
:10A9C00002F20A43C34001936261002B14BF0222CA
:10A9D0000122A3612261B9F1000F16D0A9F233431D
:10A9E0000344C0F13500C8F800302860204603B0A9
:10A9F000BDE8F08301A8FFF747FD019B63610122D9
:10AA000020302261B9F1000FE8D104EB8203A0F2FB
:10AA10003240C8F800001869FFF716FDC0EB42107D
:10AA20002860204603B0BDE8F083DDE900236261C1
:10AA3000CBE70246024B034840F20A3100F08CF9A2
:10AA4000309D0400949D040038B5074D0022044653
:10AA500008462A601EF0E2FF431C00D038BD2B6878
:10AA6000002BFBD0236038BD9C74002053EC102BCE
:10AA700070B5164E054623F000410020B142286013
:10AA800021DC10EE106A0E431DD0114E1E401C46F4
:10AA900066B91946002210EE100A0E4B1EF03EFB5E
:10AAA00002460C466FF0350021F0004124F0FF44CF
:10AAB000091524F4E004A1F2FE3144F07F5301446F
:10AAC00043F40013296043EC102B70BDFFFFEF7FB0
:10AAD0000000F07F00005043000000000000000074
:10AAE0000000000000000000000000000000000066
:10AAF0000000000000000000000000000000000056
:10AB000090F800F06DE9024520F007016FF0000CAD
:10AB100010F0070491F820F040F049804FF0000455
:10AB20006FF00700D1E9002391F840F000F1080030
:10AB300082FA4CF2A4FA8CF283FA4CF3A2FA8CF368
:10AB40004BBBD1E9022382FA4CF200F10800A4FACF
:10AB50008CF283FA4CF3A2FA8CF3E3B9D1E9042323
:10AB600082FA4CF200F10800A4FA8CF283FA4CF35A
:10AB7000A2FA8CF37BB9D1E9062301F1200182FA14
:10AB80004CF200F10800A4FA8CF283FA4CF3A2FA1A
:10AB90008CF3002BC6D0002A04BF04301A4612BA28
:10ABA000B2FA82F2FDE8024500EBD2007047D1E92B
:10ABB000002304F00305C4F100004FEAC50514F0BA
:10ABC000040F91F840F00CFA05F562EA05021CBF8B
:10ABD00063EA050362464FF00004A9E770B440EA57
:10ABE0000104A30701D1032A0FD804464D1E07E034
:10ABF00015F8011F03F8011B561EC9B11C46324649
:10AC00002346002AF4D170BC70470B46044619460F
:10AC100053F8046BA6F1013525EA060515F0803FCF
:10AC2000E4D1043A032A44F8046B1946EFD8DDE76F
:10AC30002244002EE7D003F8011B9342FBD170BCE5
:10AC4000704700BF2DE9F04F936883B09146002B09
:10AC50006ED017688D6880460C460868083744E057
:10AC6000A38913F4906F2ED0D4E9041505EB4505A4
:10AC7000A0EB010A05EBD5750AEB06006D1001305B
:10AC8000A8422A4684BF05462A465B0537D51146A9
:10AC90004046FEF78BFF00283BD0524621690190C9
:10ACA000FFF7A6FAA289019B22F4906242F080028B
:10ACB000A281A5EB0A0203EB0A0065612361206013
:10ACC000A2603546B2465946524600F0A7F8A06841
:10ACD000D9F808102368451B8E1B03EB0A00A560FA
:10ACE0002060C9F808601EB3083757E902B6AA46C3
:10ACF000002EF9D0AE42B3D23546B246E3E7404625
:10AD000000F0F8F803460028D3D121694046FEF749
:10AD100031FE0C23C8F80030A389002243F0400321
:10AD20004FF0FF30A381C9E9012203B0BDE8F08FE5
:10AD30000020C9F8040003B0BDE8F08F49B1FF2A34
:10AD400002D80A70012070478A2303604FF0FF3059
:10AD500070470846704700BF00B50A4C2568144686
:10AD600085B01A460346E86844B1074D0091CDE925
:10AD70000154064900F03EF801F01AFA044D2C4641
:10AD8000F4E700BFD01D0020D49E0400E49E040020
:10AD9000E09E040010B502FB01F1FEF707FF044638
:10ADA00068B150F8042C22F00302043A242A18D87F
:10ADB000132A06D802460023C2E9003393602046D6
:10ADC00010BD00231B2AC0E900330FD9242AC0E993
:10ADD00002330ABFC0E9043300F1100200F1180287
:10ADE000E9E70021FBF72CFD204610BD00F1080229
:10ADF000E1E700BF0EB410B583B005AB064C53F8C5
:10AE0000042B01930146206800F07AFA03B0BDE8F4
:10AE1000104003B0704700BFD01D00208842F0B43E
:10AE20000DD98B1883420AD9841832B1224613F8FF
:10AE3000014D02F8014D9942F9D1F0BC70470F2A3B
:10AE40000ED80346541E002AF7D001340C44013BAF
:10AE500011F8012B03F8012FA142F9D1F0BC704782
:10AE600040EA01039B073FD1A2F1100323F00F0436
:10AE700001F1200727441B0901F1100400F110051E
:10AE800054F8106C45F8106C54F80C6C45F80C6CC8
:10AE900054F8086C45F8086C54F8046C45F8046CD8
:10AEA0001034BC4205F11005EAD1013312F00C0F49
:10AEB00001EB031102F00F0400EB031317D0043C65
:10AEC00024F0030CA5089C441C1F0E4656F8047B76
:10AED00044F8047F6445F9D16C1C03EB840301EB57
:10AEE000840102F00302ADE7541E0346ADE722469B
:10AEF000A8E700BF2DE9F84F1646002900F0C180F1
:10AF000006F10B050C460746FFF70CFA162D62D822
:10AF100010252A46AE4263D854F804EC2EF00308FC
:10AF2000A4F10809904509EB080A80F28580C94B15
:10AF3000DAF804009968514500F0BB8020F0010365
:10AF400053445B68DB0700F1908020F0030008EBBE
:10AF50000003934280F219811EF0010F11D154F8C1
:10AF6000083CA9EB030BDBF8041021F003010844B3
:10AF700000EB0803934280F21C8108EB010393422B
:10AF800034DA31463846FEF711FE0646E8B154F889
:10AF9000043C23F001034B44A0F10802934200F06B
:10AFA000FC80A8F10402242A00F2FF80132A216801
:10AFB00000F2CD80034622461960516859609268BC
:10AFC0009A6021463846FEF7D5FC3846FFF7B0F9BF
:10AFD0003046BDE8F88F25F00705002D2A4699DA9E
:10AFE0000C233B6000263046BDE8F88F5E46DBF858
:10AFF0000C1056F8080FA8F10402242AC1600BEBCC
:10B00000030A886000F2DD80132A216840F2D780AD
:10B01000CBF808106168CBF80C101B2AA16800F26D
:10B02000E4800BF110020834116061685160A1687E
:10B0300091609846D9463446D9F80430A8EB050209
:10B040000F2A03F0010321D848EA0303C9F80430AA
:10B05000DAF8043043F00103CAF8043038462646D3
:10B06000FFF766F93046BDE8F88F1EF0010F88D172
:10B0700054F8083CA9EB030BDBF8041021F00301A2
:10B080007BE7BDE8F84F1146FEF790BD09EB0501DF
:10B090002B4342F00102C9F804304A60DAF8043068
:10B0A00043F001030831CAF804303846FEF762FC69
:10B0B000D4E720F0030008EB000105F1100C614516
:10B0C00050DA1EF0010F7FF45CAF54F8081CA9EBB6
:10B0D000010BDBF8041021F00301084400EB080A1F
:10B0E000D4453FF74AAF5E46DBF80C1056F8080F20
:10B0F000A8F10402242AC160886000F29980132A12
:10B10000216840F29380CBF808106168CBF80C10EE
:10B110001B2AA16800F292800BF110020834116022
:10B1200061685160A16891600BEB0501AAEB050213
:10B1300042F0010299604A60DBF8043003F0010339
:10B140001D433846CBF80450FFF7F2F84BE7016097
:10B15000636843601B2A3CD8A16804F1080200F12F
:10B16000080329E709EB05004A1B42F00102986039
:10B17000426054F8043C03F001031D43384644F890
:10B18000045CFFF7D5F826462DE7DAE90212984667
:10B19000CA6009EB030A91604EE750F8043C23F0C3
:10B1A0000303984409EB080A46E72146FFF736FEF9
:10B1B00007E7DAE902125E46CA60916017E7324695
:10B1C00032E7214630469846D946FFF727FE3446F7
:10B1D00032E7A3688360E368C360242A11D0216941
:10B1E00004F1100200F11003E6E6CBF81010E1685C
:10B1F000CBF81410242A0ED021690BF11802103458
:10B2000012E72369036163694361A16904F11802CC
:10B2100000F11803D0E62269CBF818206269CBF858
:10B220001C20A1690BF120021834FDE6324676E7B6
:10B2300021463046FFF7F2FD064B75E7CBF81010BC
:10B24000E168CBF81410242A06D021690BF118020A
:10B25000103464E7702300202269CBF8182062695B
:10B26000CBF81C20A1690BF12002183457E700BF6E
:10B270002DE9F84F4B6E9C0490462DD593681268CB
:10B2800043B38B46064602F1080959E9025A5FEAC0
:10B290009A0715D0043D002401E0A7420ED055F8CE
:10B2A000041F5A46304601F017F9431C04F101040B
:10B2B000F3D10023C8E90133BDE8F88FD8F808308E
:10B2C0002AF0030AA3EB0A03C8F8083009F10809B9
:10B2D000002BDAD10020ECE701F030F90023C8E9B7
:10B2E0000133BDE8F88F00BF10B494681CB15DF85D
:10B2F000044BFFF7BDBF204654605DF8044B704718
:10B300002DE9F04F2DED028BBBB008EE100A1C4664
:10B3100089469246059318B1836B002B00F07D821D
:10B32000D9F86430B9F90C10DF078AB202D4960557
:10B3300040F1218595040AD4D9F8643041F40052D3
:10B3400023F40053A9F80C20C9F8643092B2100716
:10B3500040F1ED80D9F81030002B00F0E88002F0C9
:10B360001A030A2B00F0F2800023CDE90F33CDE958
:10B370000A3308930993039318EE10BA11AB0E9396
:10B3800098469AF80030002B00F04E81544604E0B5
:10B3900014F8013F002B00F02581252BF8D1B4EBE8
:10B3A0000A0540F022812378002B00F03D81002324
:10B3B0004FF0000204938DF833201F464FF0FF3208
:10B3C0006378019204F1010A2B250AF1010AA3F125
:10B3D00020025A2A00F23E81DFE812F09F023C016F
:10B3E0003C019A023C013C013C017A023C013C01D7
:10B3F0006F026A023C0165024B023C0146025B009F
:10B400005B005B005B005B005B005B005B005B0064
:10B410003C013C013C013C013C013C013C013C0144
:10B420003C0110026F003C013C013C013C013C012D
:10B430003C013C013C013C013C01D2003C013C018F
:10B440003C01F4013C01C4023C013C0109053C0102
:10B450003C013C013C013C013C013C013C013C0104
:10B460003C01100271003C013C013C01B70271003B
:10B470006A003C01AA023C013302D40022026A00A5
:10B480003C01F4016C0007053C013C0126053C0130
:10B490006C00A3F1300200211AF8013B01EB81019D
:10B4A00002EB4101A3F13002092AF5D904918EE79C
:10B4B00047F020079AF8003087E747F01007BE06EC
:10B4C00040F16181059C073424F007031946F1E837
:10B4D0000223059114461D46002A73F10003C0F2B1
:10B4E0002D84019B013300F01F8527F0800300931A
:10B4F00054EA050300F0F883002D08BF0A2C80F001
:10B50000CC8430340123009F8DF8E74002930DF185
:10B51000E706DDE901219DF833308A42B8BF0A46CB
:10B520000092002B00F0A48001320092A0E018EEFF
:10B53000100A494600F0D4FD002840F07085B9F8A3
:10B540000C2002F01A030A2B7FF40EAFB9F90E306B
:10B55000002BFFF609AFD9F86430DB0702D497055A
:10B5600040F13B8518EE100A23465246494600F04A
:10B5700075FD039003983BB0BDEC028BBDE8F08FE6
:10B5800047F01007B80640F10F81059C073424F0FE
:10B590000703F3E80245059327F480630093002333
:10B5A0004FF000028DF83320019A1146013100F06E
:10B5B000EA81009921F0800754EA050140F0E28118
:10B5C000002A40F0B484002B40F09383009B13F0DA
:10B5D0000103029300F0CC8330238DF8E7300DF1A6
:10B5E000E70696E7B4EB0A051ED0DDE90F3201331A
:10B5F0002A44072BCDE90F32C8F800A0C8F8045040
:10B6000006DC08F10808039A23782A440392CBE663
:10B61000002A00F065830EAA49465846FFF728FE27
:10B6200040B90DF14408EEE7109B002B40F0E78491
:10B6300000230F93D9F86420B9F80C30D10740F1FA
:10B6400098805B0600F1F78403983BB0BDEC028B59
:10B65000BDE8F08F002BE7D001228DF884304FF049
:10B66000000300928DF83330029221AE0023019343
:10B6700017F00203079302D0009B02330093DDE929
:10B680000F2C17F0840302F101000146069305D147
:10B69000049B009C1C1B002C00F376829DF8334019
:10B6A00008F108007CB10CF1010C0DF1330401220A
:10B6B0000729CDE90F1CC8E9004200F345820A467C
:10B6C000804601310830079BDBB10CF1020C0DAA5A
:10B6D00002230729CDE90F1CC8E9002340F34E825D
:10B6E000BCF1000F00F024830EAA49465846FFF72C
:10B6F000BFFD00289ED1DDE90F2C13A8511C0DF1D0
:10B700004408069B802B00F07781DDE901341C1B87
:10B71000002C00F3C781029A0F9113466344072956
:10B72000C8E9006210930CDD002B00F077820EAAAE
:10B7300049465846FFF79CFD00287FF47BAF109BDD
:10B7400011A87C0705D5049A0099541A002C00F31F
:10B750006E82DDE9032100988142ACBF52181218B5
:10B760000392002B40F0DE8100230F930DF144087B
:10B7700007E69A053FF565AFD9F85800FEF714FAC9
:10B78000B9F80C305DE7059BFD0603F1040100F1FB
:10B7900018837C06059B40F11183B3F900400591A5
:10B7A000E51722462B4697E6059AF90602F10403AF
:10B7B00000F1FF827E06059A40F1F8821488059315
:10B7C0000025E9E6059C54F8046B4FF000038DF862
:10B7D0003330002E00F0B583019A1346013300F098
:10B7E0002A8300213046FEF7B3FC002800F0FB83DB
:10B7F000831B02930023059401938AE6059C012292
:10B8000054F8043B00924FF000018DF833108DF88E
:10B8100084300594029221AE28E700F0D3FD7FE545
:10B82000059C54F8043B059447F63002ADF83420EB
:10B830001C4647F00202C24B0893009200250223E7
:10B84000AEE6059A52F8043B0592BA0600F1C082B2
:10B85000FE0600F172837D0600F1A483BC0540F171
:10B860006C83039A1A708CE59AF8003047F08007D1
:10B87000ABE5514611F8013B2A2B00F0E183A3F11F
:10B880003002092A8A4698BF002100F2B2831AF8D2
:10B89000013B01EB810102EB4101A3F13002092AD6
:10B8A000F5D9019193E59AF8003047F004078CE54B
:10B8B0009AF800308DF8335087E5059A9AF80030F1
:10B8C00052F8041B04910029C0F2B18205927CE574
:10B8D0005846FEF759F943680A931846FFF710F9DE
:10B8E000034658461C460B93FEF74EF982680992B0
:10B8F000002C3FF4DFAD099A9AF80030002A3FF49B
:10B9000064AD1278002A3FF460AD47F480675CE5CF
:10B910009AF8003047F0010757E59DF833209AF870
:10B920000030002A7FF451AD20228DF833204CE501
:10B930009AF800306C2B03BF9AF8013047F02007CB
:10B940000AF1010A47F010073FE59AF80030682B2A
:10B9500003BF9AF8013047F400770AF1010A47F073
:10B96000400732E547F010030093009B9C0640F12E
:10B97000C581059C073424F00703F3E802450593CD
:10B9800001230DE60097012B3FF4B6AD022B3AAE32
:10B9900013D10898230904F00F0143EA05732A091B
:10B9A0001C461546435C06F8013D54EA0503F1D1F7
:10B9B000009F3AAB9B1B0293ABE5E20842EA45725B
:10B9C000E90804F007030D461446303354EA050134
:10B9D000324606F8013DF0D1009F3946C907E8D547
:10B9E000302BE5D03023023A06F8013C3AAB9B1AE3
:10B9F000009F029316468CE5049B009C1C1B002CA8
:10BA00007FF783AE102C4F4D40F30683634606E06C
:10BA1000901C08F108080A46103C102C1DDD511C32
:10BA20001033102007291093C8F80050C8F80400FC
:10BA30000F91EDDD0EAA49465846002B7BD0FFF74B
:10BA400017FC00287FF4F6ADDDE90F23103C102C25
:10BA500002F101000DF14408E1DC9C4608F1080305
:10BA6000A4440728C8E90054CDF840C00F9040F323
:10BA70008B81BCF1000F00F084820EAA4946584623
:10BA8000FFF7F6FB00287FF4D5ADDDE90134DDE9F1
:10BA90000F2C1C1B002C02F1010113A80DF144080E
:10BAA0007FF739AE102C274D40F35582634606E0F0
:10BAB000911C08F108080246103C102C1CDD501C9B
:10BAC0001033102107281093C8F80050C8F804104C
:10BAD0000F90EDDD0EAA49465846F3B1FFF7C8FBBB
